:10000000A7C00000C1C00000BFC00000BDC000000C
:10001000BBC00000B9C00000B7C00000B5C0000000
:10002000B3C0000047C30000AFC0000042C50000DD
:10003000E7C50000A9C00000A7C00000A5C00000DF
:10004000A3C00000A1C000009FC000009DC0000030
:100050009BC0000099C0000097C000004CC2000087
:1000600093C0000091C000008FC000008DC0000050
:100070008BC0000089C0000087C0000085C0000060
:1000800083C0000081C000007FC000007DC0000070
:100090007BC0000079C000001201100102000008BE
:1000A00041233D0001000102DC0109023E00020182
:1000B00000C0320904000001020201000524000111
:1000C0001004240206052406000107058203080027
:1000D000FF09040100020A000000070504024000B5
:1000E00001070583024000010403090432034100B3
:1000F00072006400750069006E006F002000280027
:100100007700770077002E006100720064007500B0
:1001100069006E006F002E0063006300290000007C
:100120002E03410072006400750069006E006F00CC
:1001300020004400750065002000500072006F0030
:1001400067002E00200050006F0072007400000055
:1001500011241FBECFEFD2E0DEBFCDBF11E0A0E083
:10016000B1E0ECEBF2E102C005900D92AA31B107CB
:10017000D9F712E0AAE1B1E001C01D92A036B107A3
:10018000E1F758D00C945C093BCFFC01E05AFF4FDB
:10019000A081B1816C93A081B1819D012F5F3F4F00
:1001A000318320832E173F0721F412969C938E9360
:1001B00011972FB7F894FC01EC59FF4F80818F5FA6
:1001C00080832FBF0895882311F03F9A01C03F9884
:1001D00047980895882311F046980895469A0895FF
:1001E0001F9384B7877F84BF18E10FB6F8941093EC
:1001F0006000109260000FBE80E0E5DF469A3E9AF4
:1002000087E690E09093CD008093CC0086E08093C9
:10021000CA001092C8001093C900539A5A9A8AB122
:1002200080638AB98BB180638BB938D484E085BD93
:100230001F910895AF92BF92CF92DF92EF92FF92FB
:100240000F931F93CF93DF93CBDF8FB7F8940FEE0D
:1002500011E01093500200934F021093520200934A
:1002600051028FBF8FB7F894CAE8D1E0D093EB0169
:10027000C093EA01D093ED01C093EC018FBFBAD1D6
:100280007894C801102F092F5E01EC2EDB2C83E03F
:10029000F82E9FB7F894809153029FBF803649F0A3
:1002A00080E091E08AD7BC0197FD03C08FEE91E01A
:1002B0006CDF8FB7F894C090EE018FBFA89904C08F
:1002C0008C2D813408F487C0A89A8091EE01882390
:1002D00009F15D98F09222011DC0E091EC01F091CE
:1002E000ED016191F093ED01E093EC0191E0EA3EC4
:1002F000F90721F4E092EC01D092ED019FB7F89458
:100300008091EE0181508093EE019FBF80E091E0EB
:10031000EDD6CA94CC2009F780912201882351F0B0
:1003200080912201815080932201809122018823B3
:1003300009F45D9A80912301882351F08091230173
:1003400081508093230180912301882309F45C9AD2
:1003500080911A0190911B01181619060CF036C0F5
:100360008F35910529F460D181E034DF80E02BDF07
:1003700080911A0190911B018332910529F454D187
:1003800080E028DF80E01FDF80911A0190911B013F
:100390008931910529F448D180E01CDF81E013DF29
:1003A00080911A0190911B018130910529F43CD173
:1003B00080E010DF80E007DF80911A0190911B013F
:1003C000019790931B0180931A0105C080E002DF22
:1003D00080E0F9DE09D19FB7F894809153029FBF66
:1003E000882311F1E0915102F09152029191F09322
:1003F0005202E093510282E0EF34F80721F41093A7
:100400005102009352022FB7F89480915302815009
:10041000809353022FBF8091C80085FFFCCF90933B
:10042000CE005C98F092230105D180E091E0B6D631
:1004300088D52FCF80E091E020C680E091E0B3C561
:10044000CF92DF92EF92FF921F93FC01A489A150FB
:10045000A23028F4B0E0A85EBE4F1C9101C010E0AD
:100460008389823009F418608589873031F08830BB
:1004700031F0863029F4126003C0146001C01660A8
:100480001092C9001092C8001092CA00C784D08888
:10049000E188F28881E090EBC91694E0D90690E0FB
:1004A000E90690E0F90609F080E080932001C70199
:1004B000B60122E030E040E050E0CDD620583B4786
:1004C000414E5F4FCA01B901A7019601A2D6215042
:1004D00030403093CD002093CC001093CA0082E0CE
:1004E0008093C80088E98093C9001F91FF90EF9026
:1004F000DF90CF9008951F920F920FB60F921124A4
:100500002F933F934F935F936F937F938F939F931B
:10051000AF93BF93EF93FF936091CE008EB384307F
:1005200051F480912101882319F085E291E002C005
:100530008AE891E02ADEFF91EF91BF91AF919F9100
:100540008F917F916F915F914F913F912F910F907C
:100550000FBE0F901F90189540911C0140931D01F4
:1005600020911E0120931F01FC01858590E09C01D4
:1005700021703070522F20931C0121E081FF20E078
:1005800020931E0180912001882339F08FE590E0AF
:1005900090931B0180931A010895442341F455233D
:1005A00031F08EE190E090931B0180931A01089541
:1005B000E0918701F09188018191F0938801E093A7
:1005C000870191E0E538F90731F425E231E0309315
:1005D0008801209387012FB7F89490918901915059
:1005E000909389012FBF0895EBE6F0E0808180644D
:1005F00080830895109221012FB7F89485E291E04D
:100600009093860180938501909388018093870160
:100610002FBF2C9A00001C9B06C08091680081604F
:1006200080936800E1CF0895EBE6F0E080818F7B56
:1006300080830895EF92FF921F93CF93DF939FB72C
:10064000F894809189019FBF882371F19FB7F89436
:10065000809189019FBF843038F1AADF843D19F071
:10066000853D11F513C0A4DF982F80E0EC01A0DFD9
:10067000182F9EDF812F90E08C2B9D2B07D6909119
:10068000C80095FFFCCF8093CE000EC091DF982F5D
:1006900080E0EC018DDF182F8BDF682F212F30E0F9
:1006A000CE01822B932BFAD5DF91CF911F91FF9032
:1006B000EF9008951F920F920FB60F9211248F930F
:1006C0001E9B04C081E08093210102C01092210191
:1006D0008F910F900FBE0F901F901895923029F0B8
:1006E000933041F09130E9F417C02EE330E0EAEAAC
:1006F000F0E01BC0813041F0813018F0823089F485
:1007000006C0E8EEF0E005C0ECEEF0E002C0E0E28A
:10071000F1E0249130E009C022E130E0E8E9F0E0C6
:1007200004C020E030E0E0E0F0E0DA011196FC9354
:10073000EE93C901089528E030E040E003C04F5F28
:10074000220F331F28173907D0F3842F8295807F1B
:1007500008958093E900EBEEF0E080818160808372
:10076000EDEEF0E010826093EC0040838091EE00AB
:10077000881F8827881F08951092F40080E08093D6
:10078000E9001092F0001092E8001092ED009091B4
:10079000EB009E7F9093EB008F5F853081F708958B
:1007A0008091580287FF11C003C08EB38823B1F037
:1007B0008091E80082FFF9CF8091E8008B778093E9
:1007C000E80008958EB3882349F08091E80080FF07
:1007D000F9CF8091E8008E778093E800089584E651
:1007E0009091EC0090FF05C09091E80090FF05C04B
:1007F0001BC09091E80092FD17C09EB39923B1F001
:100800009EB39530A9F09091EB0095FD13C09091A7
:10081000E10092FFE5CF9091E1009B7F9093E10092
:10082000882351F08150DCCF80E0089582E0089564
:1008300083E0089581E0089584E00895282F392FFA
:10084000F90180915E0290915F028617970718F474
:10085000BC0190E032C061157105D9F78091E800C4
:100860008E778093E800F5CF8091E80083FD37C054
:100870008091E80082FD2DC08EB38823A1F18EB354
:10088000853079F18091E80080FF17C08091F200F7
:1008900006C091919093F100615070408F5F611597
:1008A000710511F08830A8F391E0883009F090E0EC
:1008B0008091E8008E778093E80061157105A1F6BC
:1008C000992391F606C08EB3882369F08EB38530E4
:1008D00061F08091E80082FFF6CF80E0089581E02A
:1008E000089583E0089582E0089583E00895282F15
:1008F000392FC90120915E0230915F022617370718
:1009000018F4B90130E034C061157105D9F72091B0
:10091000E8002E772093E800F5CF2091E80023FD32
:1009200039C02091E80022FD2FC02EB32223B1F15F
:100930002EB3253089F12091E80020FF19C02091C5
:10094000F20008C0FC010196E491E093F1006150CF
:1009500070402F5F6115710511F0283098F331E078
:10096000283009F030E02091E8002E772093E8004D
:100970006115710591F6332381F606C08EB3882385
:1009800069F08EB3853061F08091E80082FFF6CF88
:1009900080E0089581E0089583E0089582E008955D
:1009A00083E008956115710519F51DC02091E800D7
:1009B00023FD2EC02EB3222379F12EB3253051F121
:1009C0002091E80022FFF2CFE82FF92F07C0809195
:1009D000F1008193CF016150704029F0CF01209147
:1009E000F2002223A1F72091E8002B772093E80062
:1009F00061157105D9F606C08EB3882369F08EB3F0
:100A0000853061F08091E80080FFF6CF80E00895A6
:100A100081E0089583E0089582E0089583E00895D9
:100A200042D044D01EBA1092560210925502109233
:100A3000540284E089BD89B5826089BD09B400FE95
:100A4000FDCF8091D800982F9F779093D800806831
:100A50008093D800809163008E7F809363008091A3
:100A6000D8008F7D8093D8008091E0008E7F8093A6
:100A7000E0008091E1008E7F8093E1008091E200B0
:100A800081608093E2008091E100877F8093E100A4
:100A90008091E20088608093E2000895C1DF81E0E8
:100AA0008093570208951092E20008951092E10099
:100AB00008951F920F920FB60F9211242F933F9318
:100AC0004F935F936F937F938F939F93AF93BF9356
:100AD000EF93FF938091E10080FF1BC08091E200C3
:100AE00080FF17C08091E1008E7F8093E1008091AC
:100AF000E2008E7F8093E2008091E200806180932B
:100B0000E2008091D80080628093D80019BC1EBAA0
:100B100017D28091E10084FF29C08091E20084FF18
:100B200025C084E089BD89B5826089BD09B400FE15
:100B3000FDCF8091D8008F7D8093D8008091E10017
:100B40008F7E8093E1008091E2008F7E8093E200AF
:100B50008091E20081608093E200809156028823B8
:100B600011F084E001C081E08EBBEAD18091E10008
:100B700083FF27C08091E20083FF23C08091E100C2
:100B8000877F8093E10082E08EBB109256028091B5
:100B9000E1008E7F8093E1008091E2008E7F809360
:100BA000E2008091E20080618093E200E5DD80E078
:100BB00060E042E0CEDD8091F00088608093F0003C
:100BC000BFD18091E10082FF0AC08091E20082FFE4
:100BD00006C08091E1008B7F8093E100B1D1FF914D
:100BE000EF91BF91AF919F918F917F916F915F91A5
:100BF0004F913F912F910F900FBE0F901F9018951E
:100C00001F920F920FB60F921124EF92FF920F9343
:100C10001F932F933F934F935F936F937F938F9384
:100C20009F93AF93BF93EF93FF93DF93CF930F9275
:100C3000CDB7DEB789EEE82EF12CF7018081877001
:100C4000108200EF10E0F8019081977F90837894F4
:100C5000898322D0F894F7011082F801908198607E
:100C600090838981F70180830F90CF91DF91FF916D
:100C7000EF91BF91AF919F918F917F916F915F9114
:100C80004F913F912F911F910F91FF90EF900F90F7
:100C90000FBE0F901F9018951F93DF93CF93CDB782
:100CA000DEB7AC970FB6F894DEBF0FBECDBFE8E558
:100CB000F2E08091F100819322E0E036F207C9F77B
:100CC0008091580220915902253009F484C02630C1
:100CD00040F42130A1F1213070F0233009F017C128
:100CE0002EC0283009F4E9C0293009F4F8C02630B4
:100CF00009F00DC18EC0803821F0823809F007C19B
:100D000008C08091540290915502992371F082603D
:100D10000CC080915C0287708093E9009091EB0099
:100D200081E095FF80E01092E9009091E800977FC4
:100D30009093E8008093F1001092F100C9C08823DD
:100D400019F0823009F0E3C090E08F719070009745
:100D500029F08230910509F0DBC00BC080915A0266
:100D6000813009F0D5C0233009F080E0809355022E
:100D70002CC080915A02882341F520915C02277093
:100D800009F4C6C02093E9008091EB0080FFC0C049
:100D900080915902833021F48091EB00806213C06E
:100DA0008091EB0080618093EB0081E090E002C0D5
:100DB000880F991F2A95E2F78093EA001092EA00C3
:100DC0008091EB0088608093EB001092E9008091A5
:100DD000E800877F80C0882309F099C010915A02EB
:100DE0008091E800877F8093E800DADC04C08EB34E
:100DF000882309F48DC08091E80080FFF8CF1F7729
:100E000011F083E001C082E08EBB10681093E30014
:100E10007FC08058823008F07AC080915A02909149
:100E20005B0223E08C3D920789F583E08C838AE2A4
:100E30008B833FB7F894DE01159680E090E02EE0BA
:100E400041E2E22FF0E040935700E49180FF03C0BD
:100E5000E295EF702F5FEF705E2F505D5A3308F010
:100E6000595F5C9311961C921197129601968431EA
:100E7000910539F73FBF8091E800877F8093E800B4
:100E8000CE0103966AE270E0D9DC11C060915C0289
:100E9000AE014F5F5F4F22DCBC010097C9F180912A
:100EA000E800877F8093E80089819A8120DD809126
:100EB000E8008B778093E8002BC0803841F5809163
:100EC000E800877F8093E800809156028093F100CC
:100ED0008091E8008E778093E80062DC19C0882357
:100EE000B1F490915A02923098F48091E800877F93
:100EF0008093E8009093560253DC80915602882339
:100F000011F084E001C083E08EBB94DA01C095DA71
:100F10008091E80083FF0AC08091EB00806280939B
:100F2000EB008091E800877F8093E800AC960FB6D5
:100F3000F894DEBF0FBECDBFCF91DF911F91089512
:100F400008951F938EB3882361F01091E900177004
:100F50001092E9008091E80083FF01C09DDE1093AC
:100F6000E9001F910895FF920F931F93DF93CF9392
:100F70000F92CDB7DEB7182FF42EC9016983DBDBE2
:100F800069816295660F660F607C6F29402F426011
:100F9000482B812FDEDB0F90CF91DF911F910F91B6
:100FA000FF9008950895CF93DF93EC018091E800BE
:100FB00083FF60C0888190E020915C0230915D02E7
:100FC0002817390709F056C080915902813261F023
:100FD000823220F4803209F04DC019C0823269F1AA
:100FE000833209F047C038C080915802813A09F035
:100FF00041C08091E800877F8093E800CE010F9682
:1010000067E070E01BDC8091E8008B7713C0809173
:101010005802813279F58091E800877F8093E8005B
:10102000CE010F9667E070E0BDDCCE0109DA809159
:10103000E8008E778093E8001DC0809158028132CD
:10104000C9F48091E800877F8093E80080915A027C
:101050008D87CE0181DA0DC080915802813251F422
:101060008091E800877F8093E800CE0160915A026A
:1010700099DF96DBDF91CF9108950F93CF93DF93A4
:10108000EC010D96FC0189E0DF011D928A95E9F7DC
:101090002A813B8189819C81992311F004E001C060
:1010A00000E062E041E05FDF8130D9F42E813F81D2
:1010B0008D819885992311F004E001C000E062E081
:1010C00040E051DF813069F42A853B8589859C8524
:1010D000992311F004E001C000E063E041E043DF48
:1010E00001C080E0DF91CF910F910895DF93CF93FE
:1010F0000F92CDB7DEB7FC018EB38430F1F42785B3
:101100003089418952892115310541055105A9F0E0
:1011100081818093E9008091E80085FD0AC080917B
:10112000E8008E778093E800698359DB6981882322
:1011300029F46093F10080E001C082E00F90CF912C
:10114000DF910895FC018EB3843011F52785308935
:10115000418952892115310541055105C9F0818127
:101160008093E9008091F2008823A1F09091E8003B
:101170008091E8008E778093E80095FD0DC02FDB0D
:10118000882359F49091E8009E779093E8000895A1
:1011900082E0089580E0089580E008952EB3243021
:1011A00059F4FC012785308941895289211531057F
:1011B0004105510509F0C6CF0895FC018EB3843076
:1011C00021F527853089418952892115310541054D
:1011D0005105D9F085818093E9008091E80082FF74
:1011E00014C08091F200882321F02091F10030E0BA
:1011F00002C02FEF3FEF8091F200882341F48091ED
:10120000E8008B778093E80002C02FEF3FEFC90121
:101210000895A1E21A2EAA1BBB1BFD010DC0AA1F37
:10122000BB1FEE1FFF1FA217B307E407F50720F04F
:10123000A21BB30BE40BF50B661F771F881F991FCA
:101240001A9469F760957095809590959B01AC0113
:10125000BD01CF01089597FB092E05260ED057FD3D
:1012600004D0D7DF0AD0001C38F450954095309553
:1012700021953F4F4F4F5F4F0895F6F7909580951A
:10128000709561957F4F8F4F9F4F0895F999FECFCD
:1012900092BD81BDF89A992780B50895262FF999B6
:1012A000FECF1FBA92BD81BD20BD0FB6F894FA9A49
:0C12B000F99A0FBE01960895F894FFCF44
:1012BC000003400000044000000208000000000091
:0A12CC0000000000000014003020B4
:00000001FF
